:08000000803102288731DB2F5B
:10000A0008000134FE0012001E00FE0B082800340E
:10001A002000A300A101A201230886008701403F16
:10002A00F800413FF9007808840079088500120039
:10003A002A3A031D212822285528230886008701E9
:10004A000130810741310318810A760886000130A0
:10005A00870001088400850102308107003FA10062
:10006A00013FA20069282008F800F9012208F100DE
:10007A002108F0000A30F2000030F3009A313B22E6
:10008A008031780870072000A1007908713DA2002C
:10009A002308860087010130810741310318810A4C
:1000AA00230886008701403FF800413FF90078089D
:1000BA008400790885000008D03EA0000A3020029A
:1000CA00031C6828692838282208F7002108F60046
:1000DA0008002100D90020006D0886008701403FF2
:1000EA002100D100413FD200510884005208850006
:1000FA001200253A031D82288328912920006D08C1
:10010A00860087010130810741310318810A2200E4
:10011A00B001B10103100030031801302100EE00D4
:10012A00FF302200B200FF30B30020006E08F60054
:10013A006D0880310D20803177082200B1007608E1
:10014A00B000B11FA928AA28B22821006E142200E3
:10015A00B009B109B00A0319B10A20006D08860076
:10016A008701403F2100D100413FD200510884005D
:10017A005208850012002E3A031DC428C528D92822
:10018A0020006D088600870101308107413103187C
:10019A00810A6E08F6006D0880310D2080317708DB
:1001AA002200B3007608B20020006D08860087019D
:1001BA00403F2100DB00413FDC005B0884005C0813
:1001CA0085000008DA00F3280130DB070030DC3D47
:1001DA0006296C30DA000629DA0106295A08D10004
:1001EA00D2015208003A0319FB28F12851084C3A67
:1001FA000319E9282A3A0319EE280A3A0319E928C1
:10020A00F1285B0884005C0885001200663A031D29
:10021A000F2910298729392920006E088600013004
:10022A00870001088400850104308107003F21000E
:10023A00D500013FD600023FD700033FD800492925
:10024A0020006E08860001308700010884008501BD
:10025A0004308107003F2100D500013FD600023F4C
:10026A00D700033FD80049295A08D100D2015208C1
:10027A00003A03194129492951084C3A03192529F9
:10028A00203A0319112949295B08013ED10000309F
:10029A005C3DD20020006D088600870121005108CC
:1002AA00C03F5208C13F762958082000EB002100C0
:1002BA0057082000EA00210056082000E900210022
:1002CA0055082000E80021005B0884005C088500CE
:1002DA0000082000EC00210059088131AC2180314E
:1002EA00AB295B0884005C0885000008D100D201B4
:1002FA005208003A0319822987295108663A0319D4
:10030A005929872920006D08860087010130810755
:10031A0041310318810AAB2920006D088600870144
:10032A00403F2100D100413FD200510884005208C9
:10033A0085000008D300D4015308F0005408F100E6
:10034A005908F2009C318324803187290800210052
:10035A00B300C60120006B082100CC0020006A0807
:10036A002100CB00200069082100CA00200068088B
:10037A002100C9004C082000BD0021004B082000C4
:10038A00BC0021004A082000BB00210049082000C7
:10039A00BA000030C1000030C0000030BF00003099
:1003AA00BE009031452081310318DC29DD29F4296A
:1003BA002100C601C60A4C08F3004B08F2004A089D
:1003CA00F1004908F00099318C218131730821002C
:1003DA00CC007208CB007108CA007008C90021005D
:1003EA00C701C801220031082100B70022003008E5
:1003FA002100B60046080319032A042A142A4608CB
:10040A00031D082A092A0E2A2B30AA000030AB0045
:10041A00122A2D30AA000030AB002A08C6004C0868
:10042A00F3004B08F2004A08F1004908F0009D3138
:10043A00A925813170037104031D242A252A502A13
:10044A002100460803192A2A2B2A372A460823009C
:10045A00A000FF302100B607FF30B73D0130C700CA
:10046A000030C800D030F000A130F1004708A03EAB
:10047A009A311C228131FD302100B607FF30B73D89
:10048A00A030FB003708FD003608FC0033089B311A
:10049A009D238131DA2F21004C08F3004B08F2002A
:1004AA004A08F1004908F0009D31A92581317008F8
:1004BA007104031D612A622A8D2A21004608031944
:1004CA00672A682A742A46082300A000FF30210000
:1004DA00B607FF30B73D0130C7000030C800D4303E
:1004EA00F000A130F1004708A03E9A311C22813168
:1004FA00FD302100B607FF30B73DA030FB003708BA
:10050A00FD003608FC0033089B319D238131DA2F28
:10051A003F302100D0008030CF000030CE000030C4
:10052A00CD00B401B5014C08F3004B08F2004A08AB
:10053A00F1004908F0000030F7000030F600003002
:10054A00F5000030F4009B31E52381310318AE2A0F
:10055A00AF2AEB2BBD2A21003B08D0003A08CF0076
:10056A003908CE003808CD000130B4070030B53D57
:10057A0041302000A3002030A2000030A10000304A
:10058A00A000210050082000A70021004F082000E9
:10059A00A60021004E082000A50021004D082000D9
:1005AA00A4008D31C5258131200023082100BB001C
:1005BA00200022082100BA00200021082100B900E9
:1005CA00200020082100B80038084902A000390894
:1005DA004A3BA1003A084B3BA2003B084C3BA30014
:1005EA002308F3002208F2002108F1002008F00095
:1005FA009A31BA228131F31B102B7308031D112B78
:10060A007208031D112B7108031D112B0230700291
:10061A00031C102B112BB02A21003B082000BD001F
:10062A0021003A082000BC00210039082000BB0044
:10063A00210038082000BA0021004C082000C1001F
:10064A0021004B082000C00021004A082000BF00FA
:10065A00210049082000BE00903145208131031C49
:10066A00372B382BB02A21004D084902A0004E082A
:10067A004A3BA1004F084B3BA20050084C3BA30049
:10068A002308F3002208F2002108F1002008F000F4
:10069A009A31BA228131F31B612B7308031D602B37
:1006AA007208031D602B7108031D602B0230700253
:1006BA000318602B612BC42B21005008CC004F0873
:1006CA00CB004E08CA004D08C900EB2B4130200070
:1006DA00BD002030BC000030BB000030BA00210051
:1006EA0050082000C10021004F082000C00021004E
:1006FA004E082000BF0021004D082000BE008A31AC
:10070A000F22813120003D082100D00020003C0842
:10071A002100CF0020003B082100CE0020003A082B
:10072A002100CD00FF30B407FF30B53D4D08490226
:10073A00A0004E084A3BA1004F084B3BA2005008BC
:10074A004C3BA3002308F3002208F2002108F10021
:10075A002008F0009A31BA228131F31BC32B7308A7
:10076A00031DC22B7208031DC22B7108031DC22B65
:10077A00023070020318C22BC32BC42B612B210039
:10078A004C082000BD0021004B082000BC002100BD
:10079A004A082000BB00210049082000BA002100B5
:1007AA0050082000C10021004F082000C00021008D
:1007BA004E082000BF0021004D082000BE009031E5
:1007CA0045208131031CEA2BEB2B6B2B20006C0894
:1007DA002100AD002D08AE002200B31BF52BF62B2D
:1007EA00FE2B33082100A700220032082100A600B0
:1007FA00032C06302100A6000030A7002708B2000B
:10080A002608B1000130B1070030B23D66302E062D
:10081A00031D102C112C292CB51F142C152C1F2C40
:10082A003F30D0008030CF000030CE000030CD0005
:10083A00B401B50167302D060319242C252C292C67
:10084A003408B1073508B23DBC01BD014C08C100EE
:10085A004B08C0004A08BF004908BE005008BB0048
:10086A004F08BA004E08B9004D08B800092D2100FA
:10087A0050082000BD0021004F082000BC002100C4
:10088A004E082000BB0021004D082000BA002100BC
:10089A0041082000C100210040082000C0002100BA
:1008AA003F082000BF0021003E082000BE008A3118
:1008BA000F22813120003D08D7003C08D6003B08B2
:1008CA00D5003A08D4009E312826813120005708E5
:1008DA002100C500200056082100C4002000550848
:1008EA002100C300200054082100C2004508F3007B
:1008FA004408F2004308F1004208F0009D3139250E
:10090A00813171082100B0007008AF005008200042
:10091A00A70021004F082000A60021004E08200051
:10092A00A50021004D082000A40021004508200050
:10093A00A300210044082000A2002100430820004F
:10094A00A100210042082000A0008D31C525813177
:10095A0020002308BD002208BC002108BB00200893
:10096A00BA00210041082000C100210040082000EF
:10097A00C00021003F082000BF0021003E082000DF
:10098A00BE009A315A22813120003D082100C1005F
:10099A0020003C082100C00020003B082100BF00C5
:1009AA0020003A082100BE0041302000BD0020305E
:1009BA00BC000030BB000030BA0021005008200003
:1009CA00C10021004F082000C00021004E0820006D
:1009DA00BF0021004D082000BE008A310F2281315C
:1009EA0020003D082100D00020003C082100CF0053
:1009FA0020003B082100CE0020003A082100CD004B
:100A0A000130BC070030BD3D3D08803AA0003208E5
:100A1A00803A2002031D132D31083C02031C162DB7
:100A2A00172D3C2C40302000A300A030A20000303B
:100A3A00A1000030A000210050082000A7002100DA
:100A4A004F082000A60021004E082000A500210022
:100A5A004D082000A4008D31C525813120002308CE
:100A6A002100C500200022082100C400200021081E
:100A7A002100C300200020082100C20041082000F4
:100A8A00BD00210040082000BC0021003F082000D2
:100A9A00BB0021003E082000BA00210045082000C2
:100AAA00C100210044082000C000210043082000A2
:100ABA00BF00210042082000BE009031452081314C
:100ACA000318682D692D732D00302100C5000030F0
:100ADA00C4000030C3000030C200982D2100410834
:100AEA00F3004008F2003F08F1003E08F000450814
:100AFA00F7004408F6004308F5004208F4009B3169
:100B0A00E5238131031C8A2D8B2D982D21002F1866
:100B1A008F2D902D982D0030C5000030C400003074
:100B2A00C3000030C20021004508F3004408F20067
:100B3A004308F1004208F0004C08F7004B08F600A1
:100B4A004A08F5004908F4008B31B923813173084A
:100B5A002100C1007208C0007108BF007008BE0001
:100B6A0041082000BD00210040082000BC002100EF
:100B7A003F082000BB0021003E082000BA00413097
:100B8A00A3002030A2000030A1000030A000210004
:100B9A003B082000A70021003A082000A6002100F7
:100BAA0039082000A500210038082000A4008D3152
:100BBA00C525813120002308C1002208C000210870
:100BCA00BF002008BE00903145208131031CEE2D64
:100BDA00EF2D2A2E01302100B4070030B53D4130F7
:100BEA002000A3002030A2000030A1000030A000A5
:100BFA0021003B082000A70021003A082000A60097
:100C0A00210039082000A500210038082000A4008E
:100C1A008D31C5258131200023082100BB00200029
:100C2A0022082100BA00200021082100B900200072
:100C3A0020082100B80066302E06031D252E262E18
:100C4A002A2E0130B1070030B23D21003B08D00006
:100C5A003A08CF003908CE003808CD003508A5007B
:100C6A003408A400AC01A801A901BC01BD01722F7E
:100C7A00210050082000BD0021004F082000BC00C0
:100C8A0021004E082000BB0021004D082000BA00B8
:100C9A00210041082000C100210040082000C000B6
:100CAA0021003F082000BF0021003E082000BE00AE
:100CBA008A310F22813120003D08D7003C08D60036
:100CCA003B08D5003A08D4009E31282681312000FD
:100CDA0057082100C500200056082100C400200042
:100CEA0055082100C300200054082100C20045080D
:100CFA00F3004408F2004308F1004208F0009D3175
:100D0A00392581317108803A2100A0008030200203
:100D1A00031D912E0A3070020318942E952EA72EC9
:100D2A0021004508F3004408F2004308F100420894
:100D3A00F0009D313925813171082100B000700819
:100D4A00AF00AC2E09302100AF000030B0002C08F3
:100D5A00031DB02EB12EDA2EA51FB42EB52EDA2E13
:100D6A004708A03E8600013087002E3081000130FE
:100D7A00C7070030C83DFF30B607FF30B73DAC01AA
:100D8A00AC0ADA2E4708A03E8600013087003030D0
:100D9A0081000130C7070030C83DFF30B607FF3079
:100DAA00B73DFF30A807FF30A93D28082904031DD5
:100DBA00DF2EE02EC72E4708A03E860001308700AE
:100DCA002F08303E81000130C7070030C83DFF3090
:100DDA00B607FF30B73D50082000A70021004F0892
:100DEA002000A60021004E082000A50021004D0881
:100DFA002000A400210045082000A3002100440887
:100E0A002000A200210043082000A100210042087E
:100E1A002000A0008D31C525813120002308BD00A6
:100E2A002208BC002108BB002008BA0021004108A2
:100E3A002000C100210040082000C00021003F0816
:100E4A002000BF0021003E082000BE009A315A222D
:100E5A00813120003D082100C10020003C0821000A
:100E6A00C00020003B082100BF0020003A082100F2
:100E7A00BE0041302000BD002030BC000030BB0065
:100E8A000030BA00210050082000C10021004F089C
:100E9A002000C00021004E082000BF0021004D089C
:100EAA002000BE008A310F22813120003D08210036
:100EBA00D00020003C082100CF0020003B08210080
:100ECA00CE0020003A082100CD00FF30A407FF30F1
:100EDA00A53D0130BC070030BD3D3D08803AA00069
:100EEA003208803A2002031D7C2F31083C02031885
:100EFA007F2F802F8E2F21004808803AA000803053
:100F0A002002031D8A2F4B304702031C8D2F8E2F80
:100F1A003D2E4F302100BC000030BD003C08A03EF1
:100F2A008600013087008101A030F0004808F200F5
:100F3A004708F100A030A000470820023C079B3177
:100F4A0024238131210047083C02C70048083D3B61
:100F5A00C8004608031DB22FB42F0130B52F003048
:100F6A00A000A1012008BC002108BD004608031901
:100F7A00BF2FC02FCB2FFF30C707FF30C83D470810
:100F8A00A03E860001308700460881003C08B60270
:100F9A003D08B73B4708A03EFB003708FD0036086E
:100FAA00FC0033089B319D238131080021008031E8
:100FBA0006208731EF00A23084009930850037304F
:100FCA008600013087001430803107208731EE0116
:100FDA0020308400013085001730883100208731A5
:100FEA00A0308400013085005030883100208731DC
:100FFA0020009C31DA2C640080010131890B012820
:10100A000034F800182875087F3EF9002E28750864
:10101A00BF3EF9002E287508933EF9002E28750860
:10102A00D33EF9002E287808F600F7017708003A2F
:10103A00031920282E287608013A03190828033AAA
:10104A0003190C28013A03191028073A031914281E
:10105A002E2879089931E12188310800F8007808AA
:10106A000319382839284D28F31F3C283D284D28D4
:10107A007009FA007109FB007209FC007309FD008E
:10108A00FA0A0319FB0A0319FC0A0319FD0A55286F
:10109A007308FD007208FC007108FB007008FA0072
:1010AA007308720471047004031D5C285D286628A5
:1010BA000030F3000030F2000030F1000030F000A0
:1010CA00DC289630F90074280130F4007408F90716
:1010DA000130FD36FC0CFB0CFA0C890B6E28FE3035
:1010EA007D05031D79287A2869288E280130F400A5
:1010FA007408F9070130FA070030FB3D0030FC3D67
:10110A000030FD3D0130FD36FC0CFB0CFA0C890B5E
:10111A008828FF307D05031D932894287B289E2864
:10112A000130F9020130FA35FB0DFC0DFD0D890B7A
:10113A009828FC1BA128A228A828023079020318A3
:10114A00A728A82895287918AB28AC28B428FF30F6
:10115A00FA05FF30FB057F30FC05FF30FD05031063
:10116A00F90C7908F400F501F601F7011830F435A5
:10117A00F50DF60DF70D890BBC287408FA047508ED
:10118A00FB047608FC047708FD0478080319CE28C6
:10119A00CF28D428F31FD228D328D428FD177D08B6
:1011AA00F3007C08F2007B08F1007A08F0000800DE
:1011BA00FA01FA0A1130FB00A130FC000130993122
:1011CA00FD218831FA01FA0A2630FB00A130FC0021
:1011DA0002309931FD218831FA01FA0A7A30FB008E
:1011EA00A130FC0003309931FD218831FA01FA0A55
:1011FA000030FB00A030FC0004309931FD21883119
:10120A000430FA0021006F08303EFB0004309031B0
:10121A000120883194290830FA003C30FB00023062
:10122A009031012088310830FA002030FB00033069
:10123A009031012088311130FA002030FB00023051
:10124A009031012088311230FA002030FB0003303F
:10125A00903101208831AC290830FA002030FB0097
:10126A0002309031012088310830FA003C30FB000E
:10127A0003309031012088311130FA002030FB0010
:10128A0002309031012088311230FA002030FB0000
:10129A000330903101208831AC290830FA0020301F
:1012AA00FB0002309031012088310830FA002030EA
:1012BA00FB0003309031012088311130FA003C30B4
:1012CA00FB0002309031012088311230FA002030C0
:1012DA00FB000330903101208831AC290830FA0034
:1012EA002030FB0002309031012088310830FA00AA
:1012FA002030FB0003309031012088311130FA0090
:10130A002030FB0002309031012088311230FA007F
:10131A003C30FB000330903101208831AC29210098
:10132A006F082000A100A2012208003A03199E2991
:10133A00AC292108013A03191029033A0319312962
:10134A00013A03195229073A03197329AC292000D3
:10135A000D1CB029B129C2290D18B429B529B12902
:10136A000130A10021082100EF0705306F02031C9C
:10137A00BF29C029C229EF01EF0A20008D1CC62906
:10138A00C729D5298D18CA29CB29C7290130210097
:10139A00EF026F08031DD229D329D5290330EF00A4
:1013AA0020000D1DD929DA290E2A0D19DD29DE2979
:1013BA00DA29F6299931882188310E2A993184212E
:1013CA0088310E2A9931802188310E2A0330220071
:1013DA00B6002100EF01EF0A01309931E12188318D
:1013EA000E2A21006F082000A100A2012208003A5B
:1013FA000319002A0E2A2108013A0319DF29033AA0
:10140A000319E329013A0319E729073A0319EB29D2
:10141A000E2A0800200041088039CB004135D2004D
:10142A00C01F182A192A1A2A5214520803191E2AE6
:10143A001F2A2F2A520A031D232A242A2C2A003063
:10144A00C1000030C0000030BF000030BE00C0172D
:10145A00C101372A0030C1000030C0000030BF008F
:10146A000030BE003D088039C2004208CB063D3537
:10147A00D300BC1F412A422A432A53145308031992
:10148A00472A482A582A530A031D4C2A4D2A552A04
:10149A000030BD000030BC000030BB000030BA0094
:1014AA00BC17BD01602A0030BD000030BC0000300E
:1014BA00BB000030BA003D083C043B043A04031D5B
:1014CA00672A682A812A0030C1000030C000003033
:1014DA00BF000030BE008030C0047F30C1044B081A
:1014EA00C2004208C1044108BD004008BC003F08D0
:1014FA00BB003E08BA00B82B5208031D852A862A6B
:10150A008F2A0030BD000030BC000030BB00003024
:10151A00BA00B82B5208C200C3014308C5005308D9
:10152A004202C400031CC50344087F3ECC000030BD
:10153A00453DCD004108CA004008C9003F08C8001F
:10154A003E08C7000030C1000030C0000030BF00B4
:10155A000030BE000030D1000030D0000030CF0093
:10156A000030CE00D301F72A53080319BD2ABE2A38
:10157A00D82A0130C735C80DC90DCA0D890BBF2A33
:10158A000130BE35BF0DC00DC10D890BC62AD11F52
:10159A00CF2AD02AD12A3E140130CE35CF0DD00D14
:1015AA00D10D890BD22A3D084A02031DE62A3C08BE
:1015BA004902031DE62A3B084802031DE62A3A08A7
:1015CA004702031CE92AEA2AF32A51173A08C702F2
:1015DA003B08C83B3C08C93B3D08CA3B0130C20036
:1015EA004208D3071A305302031CFC2AFD2AB92ADF
:1015FA004A084904480447040319042B052B1E2BE7
:10160A004E141E2B0130BE35BF0DC00DC10D890B06
:10161A00082BD11F112B122B132B3E140130CE3560
:10162A00CF0DD00DD10D890B142BFF30CC07FF3015
:10163A00CD3DC01F212B222B072BD301D11F262BD7
:10164A00272B432BFF304E05C200FF304F05C30046
:10165A00FF305005C4007F305105C50045084404D9
:10166A004304420403193A2B3B2B3E2BD301D30AE2
:10167A00432B3E1C412B422B432B3B2B5308031974
:10168A00472B482B702B0130BE070030BF3D00307E
:10169A00C03D0030C13D411C532B542B702B3E08DA
:1016AA00C2003F08C3004008C4004108C500013019
:1016BA00C600C537C40CC30CC20CC60B5E2B45084A
:1016CA00C1004408C0004308BF004208BE00013000
:1016DA00CC070030CD3D4D08803AC200803042022E
:1016EA00031D792BFF304C02031C7C2B7D2B8A2B8C
:1016FA00FF302000CC000030CD000030C1000030A7
:10170A00C0000030BF000030BE0020004D08803A03
:10171A00C20080304202031D942B01304C02031890
:10172A00972B982BA42B2000CC01CD010030C100AF
:10173A000030C0000030BF000030BE00CB012000E6
:10174A004C08D200521CAA2BAB2BAD2BC017B12BC5
:10175A007F30C2004208C0055236C1004B08C200A1
:10176A004208C104782A080073088039F8007335E2
:10177A00FA00F21FC12BC22BC32B7A147A08031961
:10178A00C72BC82BD82B7A0A031DCC2BCD2BD52BD4
:10179A000030F3000030F2000030F1000030F000B9
:1017AA00F217F301E02B0030F3000030F2000030B2
:1017BA00F1000030F00077088039F90079087806DE
:1017CA000319E82BE92BEA2B78177735F900F61F6E
:1017DA00EF2BF02BF12B791479080319F52BF62B43
:1017EA00062C790A031DFA2BFB2B032C0030F70079
:1017FA000030F6000030F5000030F400F617F7016B
:10180A000E2C0030F7000030F6000030F5000030F2
:10181A00F4007A0879020318132C142C3B2C781F35
:10182A00172C182C1D2C80302000A0002008F80648
:10183A007A08FB007908FA007B08F9007008FB00B7
:10184A007408F0007B08F4007108FB007508F100C9
:10185A007B08F5007208FB007608F2007B08F600A8
:10186A007308FB007708F3007B08F700FB0179088F
:10187A002000A000A1012108A3007A082002A200EA
:10188A00031CA3032308803AA40080302402031D0A
:10189A00502C1A302202031C532C542C862C730809
:1018AA00720471047004031D5B2C5D2C01305E2CE4
:1018BA000030FB000030F3000030F2000030F1008D
:1018CA000030F0007908FA008C2C7B1C6D2C6E2CF1
:1018DA00722C7B360138FB00742C0310FB0C701C35
:1018EA00772C782C792CFB1701302000A000F337D5
:1018FA00F20CF10CF00CA00B7C2C0130A00020089B
:10190A00FA0779087A02031C8B2C8C2C6A2C781B18
:10191A008F2C902CC72C7A08031D942C952C9E2C66
:10192A000030F3000030F2000030F1000030F00027
:10193A00C42D7408F0077508F13D7608F23D770862
:10194A00F33D731CA92CAA2C542D7B1CAD2CAE2C58
:10195A00B22C7B360138FB00B42C0310FB0C701C34
:10196A00B72CB82CB92CFB1701302000A000F33794
:10197A00F20CF10CF00CA00BBC2C0130A0002008DA
:10198A00FA07542D7308803A2000A0007708803A9D
:10199A002002031DDA2C76087202031DDA2C750860
:1019AA007102031DDA2C740870020318DD2CDE2C78
:1019BA00162DFF30A000FF30A100FF30A200FF303B
:1019CA00A30070087402A4007108753BA500720890
:1019DA00763BA6007308773BA7002408A0072508D2
:1019EA00A13D2608A23D2708A33D2308F3002208AB
:1019FA00F2002108F1002008F0008030A000200841
:101A0A00F806FB09FB0A7B08031D0C2D0D2D1E2D64
:101A1A000130F0070030F13D0030F23D0030F33D77
:101A2A001E2D7408F0027508F13B7608F23B770820
:101A3A00F33B7308720471047004031D252D262DCF
:101A4A00502D7B08031D2A2D2B2D502D0030F3001D
:101A5A000030F2000030F1000030F000C42D0130F7
:101A6A00F035F10DF20DF30D890B352DFB1F3E2DCF
:101A7A003F2D402D70147B1C432D442D472D0314FC
:101A8A00FB0D492D0310FB0D7A0803194D2D4E2D20
:101A9A00502D0130FA02F21F532D542D342DF90125
:101AAA00FB1F582D592D672D7B087F3903195E2D91
:101ABA005F2D622DF901F90A672D701C652D662DBF
:101ACA00672D5F2D790803196B2D6C2D9A2D013026
:101ADA00F0070030F13D0030F23D0030F33D731C59
:101AEA00772D782D9A2D70082000A0007108A1008A
:101AFA007208A2007308A3000130A400A337A20C45
:101B0A00A10CA00CA40B832D2308F3002208F200D9
:101B1A002108F1002008F0007A0A0319952D962D64
:101B2A009A2D0130A0002008FA077A0A03199E2D7F
:101B3A009F2DA42D7A08031DA32DA42DB22D0030AC
:101B4A00F3000030F2000030F1000030F0007A08B3
:101B5A00031DB02DB12DB22DF8017A1CB52DB62D6D
:101B6A00B82DF217BD2D7F302000A0002008F20505
:101B7A007A36F300F81FC22DC32DC42DF3170800BF
:101B8A00200023088039AD002335B300A21FCE2DD3
:101B9A00CF2DD02D331433080319D42DD52DE42D90
:101BAA00330A031DD92DDA2DE22D0030A3000030AF
:101BBA00A2000030A1000030A000A217EC2D0030D6
:101BCA00A3000030A2000030A1000030A0002708C6
:101BDA008039A8002808AD062735B200A61FF62DC1
:101BEA00F72DF82D321432080319FC2DFD2D0C2E79
:101BFA00320A031D012E022E0A2E0030A7000030E1
:101C0A00A6000030A5000030A400A617142E00304C
:101C1A00A7000030A6000030A5000030A40032085A
:101C2A000319182E192E1E2E3308031D1D2E1E2EC3
:101C3A00272E0030A3000030A2000030A10000309F
:101C4A00A000FF2F2008F00026089A31DC228D31EF
:101C5A0071082000B9007008B8003808A800A90166
:101C6A00AA01AB012B08B1002A08B0002908AF006D
:101C7A002808AE003908A800A901AA01AB012B085F
:101C8A00B7002A08B6002908B5002808B4002108B8
:101C9A00F00025089A31DC228D3171082000B90044
:101CAA007008B8003808A800A901AA01AB012808E1
:101CBA00AE072908AF3D2A08B03D2B08B13D3908C7
:101CCA00A800A901AA01AB012808B4072908B53D53
:101CDA002A08B63D2B08B73D2208F00024089A319D
:101CEA00DC228D3171082000B9007008B80038086C
:101CFA00A800A901AA01AB012808AE072908AF3D2F
:101D0A002A08B03D2B08B13D3908A800A901AA014B
:101D1A00AB012808B4072908B53D2A08B63D2B08A7
:101D2A00B73D0830AE35AF0DB00DB10D890B972E0A
:101D3A002108F00024089A31DC228D317108200034
:101D4A00B9007008B8003808AE073908AF3D00304E
:101D5A00B03DB13D2008F00025089A31DC228D31D2
:101D6A0071082000B9007008B8003808AE073908B1
:101D7A00AF3D0030B03DB13D0830AE35AF0DB00DCE
:101D8A00B10D890BC22E2008F00024089A31DC22FA
:101D9A008D3171082000B9007008B8003808AE0704
:101DAA003908AF3D0030B03DB13D2108F0002608AA
:101DBA009A31DC228D3171082000B9007008B80010
:101DCA003808B4073908B53D0030B63DB73D22089A
:101DDA00F00025089A31DC228D3171082000B90003
:101DEA007008B8003808B4073908B53D0030B63D68
:101DFA00B73D2208F00026089A31DC228D3171089D
:101E0A002000B9007008B8003808A8003908A900ED
:101E1A00AA01AB010830A835A90DAA0DAB0D890B93
:101E2A00102F2808B4072908B53D2A08B63D2B0803
:101E3A00B73D2E08A8002F08A9003008AA003108CB
:101E4A00AB001830AB36AA0CA90CA80C890B272FAB
:101E5A002808B4072908B53D2A08B63D2B08B73D1E
:101E6A000830AE35AF0DB00DB10D890B362F3308E2
:101E7A003207A800A901A90D2808823EB800FF3040
:101E8A00293DB9005F2F0130B435B50DB60DB70D38
:101E9A00890B492FB11F522F532F542F341401305D
:101EAA00AE35AF0DB00DB10D890B552FFF30B80708
:101EBA00FF30B93DB61F622F632F482FB201B11F01
:101ECA00672F682F842FFF302E05A800FF302F05BB
:101EDA00A900FF303005AA007F303105AB002B087E
:101EEA002A042904280403197B2F7C2F7F2FB2018F
:101EFA00B20A842F341C822F832F842F7C2F32081E
:101F0A000319882F892FB12F0130B4070030B53D4E
:101F1A000030B63D0030B73D371C942F952FB12FB6
:101F2A003408A8003508A9003608AA003708AB000B
:101F3A000130AC00AB37AA0CA90CA80CAC0B9F2F34
:101F4A002B08B7002A08B6002908B5002808B400EB
:101F5A000130B8070030B93D3908803AA80080300E
:101F6A002802031DBA2FFF303802031CBD2FBE2FD3
:101F7A00C82F7F302000B7008030B6000030B5008F
:101F8A000030B400F32F20003908803AA8008030CE
:101F9A002802031DD22F013038020318D52FD62F5D
:101FAA00E12F00302000B7000030B6000030B50045
:101FBA000030B400AD01F32F20003808B300FF3021
:101FCA00B405FF30B5057F30B6050030B705331CC0
:101FDA00EF2FF02FF12FB6173336B7002D08A800D0
:101FEA002808B7043708A3003608A2003508A1005C
:061FFA003408A0000800FD
:10200200FC007A08F5007C088831062090317B08B4
:102012009931B62190310800383021009900980199
:102022002200960123000C118C110C1221000C11BC
:102032008C110C1223008D110D120D1121008D1126
:102042000D128D120D1323000C148C1421000C148C
:102052008C1423000D108D100D1121000D148D1400
:102062000D1522000C118C110C128D110D128D12F6
:102072000D139C31332490310C309931E121903190
:102082009931972190310800003020003A05C200B2
:1020920000303B05C30080303C05C4007F303D0565
:1020A200C5004508440443044204031D59285A2824
:1020B20062280030BD000030BC000030BB000030A0
:1020C200BA0000303E05C20000303F05C300803038
:1020D2004005C4007F304105C5004508440443045F
:1020E2004204031D752876287E280030C100003086
:1020F200C0000030BF000030BE00BD1F8128822812
:102102009A280030C2000030C3000030C400803082
:10211200C5003A08C2023B08C33B3C08C43B3D0829
:10212200C53B4508BD004408BC004308BB0042084B
:10213200BA00C11F9D289E28B6280030C200003078
:10214200C3000030C4008030C5003E08C2023F0810
:10215200C33B4008C43B4108C53B4508C100440895
:10216200C0004308BF004208BE008030BD06803078
:10217200C10641083D02031DC82840083C02031D58
:10218200C8283F083B02031DC8283E083A0203182C
:10219200CB28CC28CE280310CF2803140800FA013C
:1021A200FA0AD230FB00A030FC0001309931FD2147
:1021B2009031FA01FA0A7E30FB00A030FC000230B6
:1021C2009931FD219031FA01FA0A1530FB00A03055
:1021D200FC0003309931FD219031FA01FA0A0030F6
:1021E200FB00A030FC0004309931FD219031043015
:1021F200FA0021006F08303EFB00043090310120CC
:1022020090314E290530FA003C30FB00023090310B
:10221200012090310630FA002030FB00033090316B
:10222200012090310F30FA002030FB000230903153
:102232000120903163290530FA002030FB00023082
:102242009031012090310630FA003C30FB0003301F
:102252009031012090310F30FA002030FB00023023
:1022620090310120903163290530FA002030FB00C3
:1022720002309031012090310630FA002030FB000C
:1022820003309031012090310F30FA003C30FB00D6
:102292000230903101209031632921006F08200023
:1022A200A100A2012208003A031958296329210832
:1022B200013A03190329033A03191C29013A0319A4
:1022C2003529632920000D1C6729682979290D18F1
:1022D2006B296C2968290130A10021082100EF0730
:1022E20004306F02031C762977297929EF01EF0A5E
:1022F20020008D1C7D297E298C298D188129822917
:102302007E2901302100EF026F08031D89298A29E5
:102312008C290330EF0020000D1D90299129BC2942
:102322000D19942995299129A32922008C15B829E0
:1023320022008C11B82902302200B6002100EF01E0
:10234200EF0AB82921006F082000A100A20122088B
:10235200003A0319AD29B8292108013A031996292F
:10236200033A03199929013A03199C29B829013022
:102372009931E12190310800FA01FA0AE730FB00B5
:10238200A030FC0001309931FD219131FA01FA0AA5
:102392007E30FB00A030FC0002309931FD219131EA
:1023A200FA01FA0A1530FB00A030FC000330993123
:1023B200FD219131FA01FA0A0030FB00A030FC0045
:1023C20004309931FD2191310430FA0021006F0867
:1023D200303EFB0004309031012091313B2A053020
:1023E200FA003C30FB00023090310120913106307E
:1023F200FA002030FB0003309031012091310F3080
:10240200FA002030FB000230903101209131502A35
:102412000530FA002030FB0002309031012091316A
:102422000630FA003C30FB0003309031012091313C
:102432000F30FA002030FB00023090310120913140
:10244200502A0530FA002030FB0002309031012082
:1024520091310630FA002030FB0003309031012028
:1024620091310F30FA003C30FB00023090310120F4
:102472009131502A21006F082000A100A2012208F8
:10248200003A0319452A502A2108013A0319F02972
:10249200033A0319092A013A0319222A502A200071
:1024A2000D1C542A552A662A0D18582A592A552ACB
:1024B2000130A10021082100EF0704306F02031C44
:1024C200632A642A662AEF01EF0A20008D1C6A2A19
:1024D2006B2A792A8D186E2A6F2A6B2A0130210005
:1024E200EF026F08031D762A772A792A0330EF005C
:1024F20020000D1D7D2A7E2AA92A0D19812A822AF1
:102502007E2A902A22000C16A52A22000C12A52A45
:1025120002302200B6002100EF01EF0AA52A2100B5
:102522006F082000A100A2012208003A03199A2A8A
:10253200A52A2108013A0319832A033A0319862A94
:10254200013A0319892AA52A01309931E1219131F1
:102552000800FA01FA0AA830FB00A030FC000130A2
:102562009931FD219231FA01FA0A8F30FB00A13034
:10257200FC0002309931FD219231FA01FA0A2A3027
:10258200FB00A030FC0003309931FD219231FA01A9
:10259200FA0A0030FB00A030FC0004309931FD2122
:1025A20092310430FA0021006F08303EFB00043003
:1025B200903101209231282B0930FA003C30FB0087
:1025C20002309031012092310930FA002030FB00B4
:1025D20003309031012092311330FA002030FB0099
:1025E20002309031012092313D2B0930FA00203027
:1025F200FB0002309031012092310930FA003C3068
:10260200FB0003309031012092311330FA00203068
:10261200FB0002309031012092313D2B0930FA004B
:102622002030FB0002309031012092310930FA0053
:102632002030FB0003309031012092311330FA0038
:102642003C30FB0002309031012092313D2B2100C1
:102652006F082000A100A2012208003A0319322BC0
:102662003D2B2108013A0319DD2A033A0319F62A00
:10267200013A03190F2B3D2B20000D1C412B422B3D
:10268200532B0D18452B462B422B0130A10021085C
:102692002100EF0704306F02031C502B512B532BE8
:1026A200EF01EF0A20008D1C572B582B662B8D183B
:1026B2005B2B5C2B582B01302100EF026F08031DAE
:1026C200632B642B662B0330EF0020000D1D6A2B59
:1026D2006B2B972B0D196E2B6F2B6B2B7E2B0730D1
:1026E2002200B6002100EF01EF0A932B08302200EE
:1026F200B600732B2200B601732B21006F08200055
:10270200A100A2012208003A0319882B932B210869
:10271200013A0319702B033A0319772B013A031973
:102722007B2B932B01309931E12192310800FA0180
:10273200FA0A3B30FB00A130FC0001309931FD2147
:102742009331FA01FA0AA430FB00A130FC000230F6
:102752009931FD219331FA01FA0A3F30FB00A03092
:10276200FC0003309931FD219331FA01FA0A00305D
:10277200FB00A030FC0004309931FD21933104307C
:10278200FA0021006F08303EFB0004309031012036
:102792009331162C0A30FA003C30FB0002309031A3
:1027A200012093310B30FA002030FB0003309031CE
:1027B200012093311330FA002030FB0002309031B7
:1027C200012093312B2C0A30FA002030FB0002301A
:1027D2009031012093310B30FA003C30FB00033082
:1027E2009031012093311330FA002030FB00023087
:1027F2009031012093312B2C0A30FA002030FB005B
:1028020002309031012093310B30FA002030FB006E
:1028120003309031012093311330FA003C30FB0039
:1028220002309031012093312B2C21006F082000BF
:10283200A100A2012208003A0319202C2B2C210806
:10284200013A0319CB2B033A0319E42B013A03197A
:10285200FD2B2B2C20000D1C2F2C302C412C0D1865
:10286200332C342C302C0130A10021082100EF0739
:1028720004306F02031C3E2C3F2C412CEF01EF0A67
:1028820020008D1C452C462C542C8D18492C4A2C8A
:10289200462C01302100EF026F08031D512C522CEF
:1028A200542C0330EF0020000D1D582C592C892C7C
:1028B2000D195C2C5D2C592C702C03302200B600B3
:1028C2002100EF01EF0A852C2200B601B60A210091
:1028D200EF01EF0A852C02302200B600612C2100A4
:1028E2006F082000A100A2012208003A03197A2CE5
:1028F200852C2108013A03195E2C033A0319652C31
:10290200013A03196C2C852C01309931E121933164
:102912000800FA01FA0A6530FB00A130FC00013020
:102922009931FD219431FA01FA0A5430FB00A030AA
:10293200FC0004309931FD21943100309931CB21D2
:10294200943171082200B5007008B40043302000B1
:10295200BD009930BC007330BB003330BA00433045
:10296200A3001630A2000030A1000030A000220017
:102972003408F0003508F100890D893B8909F2001D
:10298200F300013088313320943173082000A7000E
:102992007208A6007108A5007008A4008D31C52533
:1029A200943120002308C1002208C0002108BF0082
:1029B2002008BE008A310F22943120003D082200F7
:1029C200AF0020003C082200AE0020003B0822009D
:1029D200AD0020003A082200AC00B9302100E3002B
:1029E200A130E40022002F082100E80022002E0876
:1029F2002100E70022002D082100E60022002C0819
:102A02002100E50037309A319A229431FA01FA0A0C
:102A12003730FB000130FC0002309931FD21943146
:102A220001309931CB21943171082200B500700830
:102A3200B40042302000A300C830A2000030A10040
:102A42000030A0004430BD007F30BC00C030BB006D
:102A52000030BA0022003408F0003508F100890D78
:102A6200893B8909F200F300013088313320943127
:102A720073082000C1007208C0007108BF0070080E
:102A8200BE008A310F22943120003D08A7003C0885
:102A9200A6003B08A5003A08A4008D31C525943153
:102AA200200023082200AB00200022082200AA00F6
:102AB200200021082200A900200020082200A800EE
:102AC200C5302100E300A130E40022002B082100E0
:102AD200E80022002A082100E7002200290821003C
:102AE200E600220028082100E50037309A319A22B8
:102AF2009431FA01FA0A3730FB000130FC0003304E
:102B02009931FD21943120000D1D882D892D8F2DA5
:102B12000D198C2D8D2D892D2200B6010330210037
:102B2200EB008A30EA005530890B952DEA0B952D82
:102B3200EB0B952D00320800FA01FA0A5030FB0027
:102B4200A130FC0001309931FD219531FA01FA0AD8
:102B52006930FB00A030FC0002309931FD21953133
:102B6200FA01FA0A9330FB00A030FC0003309931DD
:102B7200FD219531FA01FA0A0030FB00A030FC0079
:102B820004309931FD2195310430FA0021006F089B
:102B9200303EFB000430903101209531542E053037
:102BA200FA003C30FB0002309031012095310530B3
:102BB200FA002030FB0003309031012095310D30B6
:102BC200FA002030FB0002309031012095310F30A5
:102BD200FA002030FB0003309031012095316C2E39
:102BE2000530FA002030FB0002309031012095318F
:102BF2000530FA003C30FB00033090310120953162
:102C02000D30FA002030FB00023090310120953166
:102C12000F30FA002030FB00033090310120953153
:102C22006C2E0530FA002030FB000230903101207A
:102C320095310530FA002030FB000330903101203D
:102C420095310D30FA003C30FB000230903101200A
:102C520095310F30FA002030FB0003309031012013
:102C620095316C2E0530FA002030FB000230903195
:102C7200012095310530FA002030FB0003309031FD
:102C8200012095310D30FA002030FB0002309031E6
:102C9200012095310F30FA003C30FB0003309031B7
:102CA200012095316C2E21006F082000A100A201A5
:102CB2002208003A03195E2E6C2E2108013A0319EC
:102CC200D02D033A0319F12D013A0319122E073AB6
:102CD2000319332E6C2E20000D1C702E712E822EA5
:102CE2000D18742E752E712E0130A10021082100BD
:102CF200EF0705306F02031C7F2E802E822EEF011C
:102D0200EF0A20008D1C862E872E952E8D188A2E76
:102D12008B2E872E01302100EF026F08031D922EA9
:102D2200932E952E0330EF0020000D1D992E9A2E22
:102D3200CD2E0D199D2E9E2E9A2EB12E04302200DC
:102D4200B6002100EF01EF0AC92E05302200B600BD
:102D5200A22E06302200B600A22E2200B601A22E1A
:102D620021006F082000A100A2012208003A0319E5
:102D7200BB2EC92E2108013A03199F2E033A0319CB
:102D8200A62E013A0319AA2E073A0319AE2EC92E0E
:102D920001309931E12195310800FA01FA0AFC303B
:102DA200FB00A030FC0001309931FD219631FA017F
:102DB200FA0A2630FB00A130FC0002309931FD21D5
:102DC2009631FA01FA0A7A30FB00A130FC00033096
:102DD2009931FD219631FA01FA0A0030FB00A03048
:102DE200FC0004309931FD2196310430FA002100B3
:102DF2006F08303EFB000430903101209631852F60
:102E02000830FA003C30FB0002309031012096314C
:102E12000830FA002030FB00033090310120963157
:102E22001130FA002030FB0002309031012096313F
:102E32001230FA002030FB0003309031012096312D
:102E42009D2F0830FA002030FB0002309031012023
:102E520096310830FA003C30FB00033090310120FB
:102E620096311130FA002030FB00023090310120FF
:102E720096311230FA002030FB00033090310120ED
:102E820096319D2F0830FA002030FB00023090313D
:102E9200012096310830FA002030FB0003309031D7
:102EA200012096311130FA003C30FB0002309031A3
:102EB200012096311230FA002030FB0003309031AD
:102EC200012096319D2F0830FA002030FB0002309D
:102ED2009031012096310830FA002030FB00033097
:102EE2009031012096311130FA002030FB0002307F
:102EF2009031012096311230FA003C30FB00033051
:102F02009031012096319D2F21006F082000A100F1
:102F1200A2012208003A03198F2F9D2F2108013A9E
:102F22000319012F033A0319222F013A0319432FE0
:102F3200073A0319642F9D2F20000D1CA12FA22FE9
:102F4200B32F0D18A52FA62FA22F0130A100210803
:102F52002100EF0705306F02031CB02FB12FB32FF2
:102F6200EF01EF0A20008D1CB72FB82FC62F8D1846
:102F7200BB2FBC2FB82F01302100EF026F08031DB9
:102F8200C32FC42FC62F0330EF0020000D1DCA2F00
:102F9200CB2FFF2F0D19CE2FCF2FCB2FE72F99310C
:102FA2007C219631FF2F993178219631FF2F99316B
:102FB20074219631FF2F03302200B6002100EF0169
:102FC200EF0A01309931E1219631FF2F21006F087C
:102FD2002000A100A2012208003A0319F12FFF2FBD
:102FE2002108013A0319D02F033A0319D42F013AC9
:0E2FF2000319D82F073A0319DC2FFF2F080010
:1032E80022008D110D12080022008D110D16080004
:1032F80022008D150D12080022008D120D130800F2
:1033080022008D120D17080022008D160D130800DB
:103318007308720471047004031993299429962977
:103328008030F306080021009E171E088F39603888
:103338009E001E11FC309E051D1408002034003428
:1033480000340034003400340034003400340034D5
:1033580000340034003400340034003400340034C5
:1033680000340034F4007408F1000430F136890B9D
:10337800BA297108F20074080F39F30072089B31FA
:103388007423993173089B31742399310800F30031
:1033980073081F39F200F20DF20D21001D087206A4
:1033A800833972069D009D149D18DB29DC29D829D4
:1033B8001C08F1001B08F0000800F4007408F10074
:1033C8000430F136890BE5297108F20074080F39C9
:1033D800F30072089B314B23993173089B314B23BF
:1033E80099310D30F100FC30890BF829F10BF829DF
:1033F80008002000A0007A08F5002008883106207F
:103408009931122A7B0884007C08850000089931CC
:10341800B62199310130FB070030FC3D7B08840060
:103428007C0885001200031D1A2A1B2A062A080098
:10343800F7007108F5007008F4007708F6007608C0
:10344800860001308700F60A7508F3007408F20058
:10345800F40A0319F50A7208840073088500000845
:10346800C03F8908031D392A3A2A232A0800F40193
:10347800F501701C402A412A452A7208F40773088E
:10348800F53D0130F235F30D890B462A0130F1364E
:10349800F00C890B4B2A70087104031D542A552A15
:1034A8003D2A7508F1007408F000080080302000FB
:1034B800BD064108F3004008F2003F08F1003E084D
:1034C800F0003D08F7003C08F6003B08F5003A0814
:1034D800F4008B31B9239A3173082000BD007208BB
:1034E800BC007108BB007008BA0008002100E000A9
:1034F8005E08E2005D08E1008D2AE1302000ED0061
:1035080021005F082000EE002100600880316E2055
:103518009A31210061088400620885001200031DA9
:10352800962A972A812ADD01DE0108002200CB00B5
:10353800E530CC004B08CD00CF01D001D601D70132
:1035480021006408DE006308DD004C30DF004D30E8
:103558009A317A229A3122004F084B072100E9005C
:10356800690886000130870081010800F31BCB2A17
:103578007308031DCA2A7208031DCA2A7108031D8D
:10358800CA2A013070020318CA2ACB2ADB2A70091A
:10359800F0007109F1007209F2007309F300F00AF2
:1035A8000319F10A0319F20A0319F30ADB2A0800BE
:1035B800F800F401F5017008F200F3017208F60052
:1035C8007308F700781CE92AEA2AEE2A7608F40735
:1035D8007708F53D0130F635F70D890BEF2A031012
:1035E800F80C7808031DF92AFA2AE62A7508F1006A
:1035F8007408F00008002000A300A101A201152B07
:103608002008F900FA017908F0007A08F100780832
:10361800F2009C3183249A3101302000A107003048
:10362800A23D21082307F9007908860001308700A8
:103638000108A0002008031D222B232B042B0800BF
:10364800F5007008F7007508F6003E2B770886002D
:10365800013087000108F4000130F3007308F70710
:103668007608860001308700740881000130F30075
:103678007308F6070130F1020030F23B710A031DAE
:10368800492B720A031D492B4A2B2A2B0800F000EC
:1036980022000F107018512B522B542B0F12552B40
:1036A8000F16F018582B592B5B2B8F125C2B8F168B
:1036B80070195F2B602B622B0F13632B0F17F019F8
:1036C800662B672B692B8F136A2B8F178F108F141C
:1036D8008F10D63000320032890B6E2B0032080072
:1036E800F00022000F1470187A2B7B2B7D2B0F1201
:1036F8007E2B0F16F018812B822B842B8F12852B93
:103708008F167019882B892B8B2B0F138C2B0F1767
:10371800F0198F2B902B922B8F13932B8F178F10C1
:103728008F148F10D63000320032890B972B00325D
:1037380008002000A90021006E1CA32BA42BAB2B92
:1037480020002908F8007B089A31FF229B31FD1BD5
:10375800AE2BAF2BB52B7D082000A8007C08A70056
:10376800B82B2000A701A801A501A601CA2B20306B
:10377800F0000030F10020002908F2009C31832479
:103788009B3101302000A5070030A63D2608803A6D
:10379800A4002808803A2402031DD42B27082502F8
:1037A800031CD72BD82BBB2B21006E18DC2BDD2B51
:1037B800E42B20002908F8007B089A31FF229B316E
:1037C800080000307005F80000307105F9008030FD
:1037D8007205FA007F307305FB007B087A047904D0
:1037E8007804031DF82BF92B012C0030F30000306E
:1037F800F2000030F1000030F00000307405F800ED
:1038080000307505F90080307605FA007F307705BD
:10381800FB007B087A0479047804031D142C152C0A
:103828001D2C0030F7000030F6000030F5000030A5
:10383800F40077087306031D2B2C76087206031D07
:103848002B2C75087106031D2B2C740870060319A0
:103858002E2C2F2C312C0310322C0314080021009D
:103868000F108F100F128F120F138F1322008F104B
:103878000F128F120F138F136230F1006630890B0D
:10388800432CF10B432C03309B314B239C312130CB
:10389800F1007630890B4E2CF10B4E2C00320330A0
:1038A8009B314B239C31A630890B582C00320330B6
:1038B8009B314B239C3102309B314B239C3102308E
:1038C8009B314B239C3108309B314B239C3100307A
:1038D8009B314B239C310F309B314B239C31003063
:1038E8009B314B239C3101309B314B239C310D3054
:1038F800F100FC30890B7E2CF10B7E2C080072083D
:103908000319872C882C8D2C7208031D8C2C8D2C68
:10391800922C7008803105209C31D92C7208093E00
:103928008600013087001600010403199C2C9D2C89
:10393800BD2C7208093E860001308700403FF30025
:10394800413FF4007208023E860001308700403F84
:10395800F500413FF6007608803AF7007408803A8F
:103968007702031DB92C730875020318BC2CBD2CF3
:10397800D92C72088600013087007208023E840044
:103988000130850000080107F30073088600013044
:103998008700700881007208023E860001308700A7
:1039A8000130810741310318810A080090310D2048
:1039B8009C31022D933198239C31292D94318A24EE
:1039C8009C31292D95319D259C31292D9231AA2292
:1039D8009C31292D9F3113279C31292D9031D020DE
:1039E8009C31292D9131BD219C31292D9631CE262E
:1039F8009C31292D8831DD209C31292D2200360863
:103A08002100EC00ED016D08003A03190C2D292D59
:103A18006C08003A0319DE2C013A0319E22C033A28
:103A28000319E62C013A0319EA2C073A0319EE2C7C
:103A3800013A0319F22C033A0319F62C013A031937
:103A4800FA2C0F3A0319FE2C292D02302100ED0023
:103A58004530EC00A930890B2F2DEC0B2F2DED0BE9
:103A68002F2D0032022D803102280310720D730DA4
:103A7800F9007908031D412D422D4B2D0030F3002C
:103A88000030F2000030F1000030F000A82D70087E
:103A9800F4007108F5007208F6007308F7001F308B
:103AA800F736F60CF50CF40C890B542D7408F80055
:103AB800F217FF30F005FF30F105FF30F205003056
:103AC800F3059630F902F91F6A2D6B2D832D7908BD
:103AD800803A973E0318712D722D732D422D0130B7
:103AE800F336F20CF10CF00C890B742D0130F40054
:103AF8007408F907031D812D822D732D982D203010
:103B08007902031C882D892D932D422D0130F03523
:103B1800F10DF20DF30D890B8B2D0130F9027908A7
:103B2800031D972D982D8A2D780803199C2D9D2DFE
:103B3800A82DF009F109F209F309F00A0319F10AAD
:103B48000319F20A0319F30A0800220027082000C3
:103B5800A500220026082000A40022002508200035
:103B6800A300220024082000A2007308A500720800
:103B7800A4007108A3007008A2002208F40023081A
:103B8800F5002408F6002508F7001730F736F60C7C
:103B9800F50CF40C890BCA2DFF307405A000003019
:103BA8007505A10020082104031DDB2DDC2DFD2D4A
:103BB8002208F4002308F5002408F6002508F70079
:103BC8000130F435F50DF60DF70D890BE52D770865
:103BD800760475047404031DF22DF32DF82D0230BC
:103BE800F0000030F100272E0330F0000030F10023
:103BF800272E200A2104031D022E032E232E22081D
:103C0800F4002308F5002408F6002508F700093019
:103C1800F435F50DF60DF70D890B0C2E77087604A3
:103C2800750474040319192E1B2E01301C2E003044
:103C3800F800F9017808F0007908F100272E04301F
:103C4800F0000030F1000800220023082000E700FF
:103C5800220022082000E600220021082000E500BA
:103C6800220020082000E4005708E7005608E60074
:103C78005508E5005408E4006408D8006508D90030
:103C88006608DA006708DB001730DB36DA0CD90C77
:103C9800D80C890B492EFF305805DC000030590537
:103CA800DD005C08813EE200FF305D3DE300630813
:103CB800803AD80080305802031D642E1730620203
:103CC800031C672E682E692E122F2000E31B6D2E11
:103CD8006E2ECB2EFF30D800FF30D9007F30DA00AF
:103CE8000030DB00620A7C2EDB37DA0CD90CD80CEA
:103CF800890B782E5B08E1005A08E0005908DF00BC
:103D08005808DE0064085E05D80065085F05D9001C
:103D180066086005DA0067086105DB005B085A047D
:103D280059045804031D992E9A2E9B2E682E640858
:103D3800D8006508D9006608DA006708DB001F307C
:103D4800DB36DA0CD90CD80C890BA42E5B085A0484
:103D5800590458040319B12EB22EBA2E5E08E4078E
:103D68005F08E53D6008E63D6108E73D5E09D8006B
:103D78005F09D9006009DA006109DB005808E40529
:103D88005908E5055A08E6055B08E7050A2F64089F
:103D9800D8006508D9006608DA006708DB001F301C
:103DA800DB36DA0CD90CD80C890BD42E5B085A04F4
:103DB80059045804031DE12EE22EEB2E0030E700D3
:103DC8000030E6000030E5000030E4000A2F640807
:103DD800D8006508D9006608DA006708DB000130FA
:103DE800D835D90DDA0DDB0D890BF42E5B085A0492
:103DF800590458040319012F022F0A2FBF30E70076
:103E08008030E6000030E5000030E4006708D700A5
:103E18006608D6006508D5006408D4000800FA01D1
:103E2800FA0ABD30FB00A030FC0001309931FD21B9
:103E38009F31FA01FA0A7E30FB00A030FC00023004
:103E48009931FD219F31FA01FA0A1530FB00A030A3
:103E5800FC0003309931FD219F31FA01FA0A003044
:103E6800FB00A030FC0004309931FD219F31043063
:103E7800FA0021006F08303EFB0004309031012029
:103E88009F31912F0530FA003C30FB000230903111
:103E980001209F310630FA002030FB0003309031BA
:103EA80001209F310F30FA002030FB0002309031A2
:103EB80001209F31A62F0530FA002030FB00023088
:103EC800903101209F310630FA003C30FB0003306E
:103ED800903101209F310F30FA002030FB00023072
:103EE800903101209F31A62F0530FA002030FB00C9
:103EF8000230903101209F310630FA002030FB005B
:103F08000330903101209F310F30FA003C30FB0024
:103F18000230903101209F31A62F21006F08200028
:103F2800A100A2012208003A03199B2FA62F2108FD
:103F3800013A0319462F033A03195F2F013A03196F
:103F4800782FA62F20000D1CAA2FAB2FBC2F0D18E1
:103F5800AE2FAF2FAB2F0130A10021082100EF07B2
:103F680004306F02031CB92FBA2FBC2FEF01EF0AE0
:103F780020008D1CC02FC12FCF2F8D18C42FC52F07
:103F8800C12F01302100EF026F08031DCC2FCD2F68
:103F9800CF2F0330EF0020000D1DD32FD42FFF2F7C
:103FA8000D19D72FD82FD42FE62F22000C15FB2F51
:103FB80022000C11FB2F02302200B6002100EF0175
:103FC800EF0AFB2F21006F082000A100A2012208A0
:103FD800003A0319F02FFB2F2108013A0319D92FB2
:103FE800033A0319DC2F013A0319DF2FFB2F0130A5
:103FF8009931E1219F3108004F3450343A3420344C
:104008002034203420342034203420342034203408
:1040180020342034203420342034203420342034F8
:10402800003432342E344F3446344634203420346D
:1040380020342034203420342034203420342034D8
:1040480020342034203420342034003432342E34C8
:104058004D344F3454344F345234423420342034A5
:1040680020342034203420342034203420342034A8
:1040780020342034003432342E34533445344E3412
:1040880053344F345234453453342034203420349C
:104098002034203420342034203420342034003498
:1040A800533445344C34203454344F34203442345F
:1040B800413443344B3420342034203420342034E9
:1040C8002034203420342034003431342E344C341D
:1040D8003134203420342034203433342E344C34DA
:1040E8003334203420342034203420342034203415
:1040F8002034003431342E344F344E3420342034BC
:104108002034203433342E344234413443344B3455
:104118002034203420342034203420340034323405
:104128002E344C3432342034203420342034343487
:104138002E344234413443344B3420342034203438
:1041480020342034203400342034203420344D34BA
:1041580045344E34553420344D344F3454344F3470
:10416800523445345334203420342034203420341D
:1041780000342034203420342034203420342034B7
:104188004D3445344E34553420344C34453444345D
:104198003134203420342034203400342034203486
:1041A800203420342034203420344D3445344E34E7
:1041B800553420344C34453444343234203420349B
:1041C8002034203400342034203420342034203467
:1041D800203420344D3445344E34553420344C3456
:1041E80045344434333420342034203420340034EB
:1041F800203420342034203420344D3445344E3497
:10420800553420344D344F3454344F3452344134BF
:104218002034203420342034003420342034203416
:10422800203420344D3445344E34553420344D3404
:104238004F3454344F3452344234203420342034F0
:104248002034003431342E345434553452344E34FE
:104258005234203420342034203433342E344F3434
:10426800463446342034203420342034003420347A
:104278002034203420342034203420344D34453444
:104288004E34553420345034503441344C34203476
:104298002034203420340034203420342034203496
:1042A8002034203420344D3445344E3455342034B1
:1042B8004C344534443453342034203420342034AE
:1042C80000342034203420344D3445344E345534B1
:1042D8002034533445344E3453344F3452344534F7
:1042E80053342034203420342034003432342E34F3
:1042F8005434553452344E344C3420342034203421
:10430800203434342E344234413443344B34203452
:1043180020342034003431342E344D344F34543466
:104328004F34523441342034203420342034333450
:104338002E344234413443344B3420342034003456
:1043480031342E344D344F3454344F345234453490
:10435800533420342034203433342E344C34453410
:10436800443453342034203400344C344D34333402
:1043780035343A342034253436342E3431346634E6
:1043880000344C34443452343A34203425343634EE
:104398002E3431346634003469346E346634003473
:0843A8006E3461346E34003400
:020000040001F9
:04000E00E239FF3E96
:00000001FF
