:08000000803102288731FD2F39
:100F5E00F0002000111EB42FB52FB02F7008230003
:100F6E009A00080021000E138E17813023009B007B
:100F7E001E121E159E169D171D160800D22F7108E3
:100F8E0084007208850000088731AF278731013051
:100F9E00F1070030F23D71088400720885001200DE
:100FAE00031DDA2FDB2FC62F08000030F3000030B0
:100FBE00F2002530F1008030F0008731B9278731FB
:100FCE0043308731AF2787310030F1008830F2008F
:100FDE008731C52787314130F400EE30890BF52F6C
:100FEE00F40BF52F0032F22F8031022820008731CA
:100FFE00DC2F48346F346C346134203474346F34E5
:10100E0064346F34733420343A3429340D340A3452
:02101E0000349C
:020000040001F9
:08000000FF3FFF3FFF3FFF3F00
:04000E00E239FF3E96
:00000001FF
